:03000000022FDDEF
:0C2FDD00787FE4F6D8FD75818202302474
:0D35DF00E4F5C7F5C5F5C675C380F5C42237
:1035580075C78075C5018FC4EEF5C375C65A75C6A3
:07356800A500AFC21235DF20
:01356F002239
:0434EF00E0FD7F017C
:1034F30075C78075C5028FC4EEF5C3AF058FC2755E
:09350300C65A75C6A5000235DFA9
:10000E0075C78075C5038FC4EEF5C375C65A75C620
:05001E00A5000235DF22
:10315D007F007EE212000E7F4512350C900098EE36
:10316D00F0A3EFF07F4312350C900092EEF0A3EF39
:10317D00F07F4712350C90009EEEF0A3EFF090001B
:10318D0098E0FFAD077F007EE21234F3A31234EF17
:10319D00900092E0FFAD077F021234F3A3E0FD7FB4
:1031AD00031234F390009EE0FFAD077F041234F359
:0F31BD00A3E0FD7F051234F37D017F060234F39A
:10321C007F007EE412000E9000DCE0FCA3E0FDA336
:10322C00E0FEA3E0FF1220ED900080EFF09000BED6
:10323C00E0FCA3E0FDA3E0FEA3E0FF1220ED900074
:10324C0089EFF07D017F007EE41234F39000801250
:0C325C0034EF900089E0FD7F020234F3A3
:1030E6007F067EE2123558AD07ED64017047FF1288
:1030F6003558EF7B00FA7F01123558EAFE900098AA
:10310600EEF0A3EFF07F027EE2123558EFFA7F036E
:10311600123558EAFE900092EEF0A3EFF07F047E9F
:10312600E2123558EFFA7F05123558EAFE90009EF6
:10313600EEF0A3EFF07F007EE4123558AD07EFB452
:1031460001147F01123558900080EFF07F0212358E
:0631560058900089EFF023
:01315C002250
:0735C000D2801235C7C28062
:0835C7007F0BAE071FEE70FA46
:0135CF0022D9
:0F35D000D2C6D2801235C7C2C61235C7C28022FA
:0C361300C2C6D2801235C7D2C60235C72D
:0D35EC00D2801235C7A2C6C2801235C72298
:02357000AD07A5
:10357200E4FCED25E0FD92C61235C00CECB408F275
:033582000235EC23
:1034CE00E4FDD2C6FCED25E0FDD2801235C7A2C6C2
:1034DE00E4334DFDC2801235C70CECB408E7AF05DE
:0134EE0022BB
:10352600AB05AA071235D07FD0123570AF0212351F
:0935360070AF0312357002361368
:02346000AB07B8
:103462001235D07FD0123570AF031235701235D0BD
:103472007FD11235701234CEAD07D2C61235C012CA
:043482003613AF0549
:013486002223
:1034AB00E4FD7F6B1235267D077F191235267D04CF
:1034BB007F1A1235267D087F1B1235267D087F1C4F
:0334CB00023526A1
:02350C00AA070C
:10350E00123460A907EA04FF123460AD07E9FE7CAD
:07351E0000E42DFFEC3EFE6E
:013525002283
:102A17004501383443101001450133344310100188
:0B32B300900101EBF0A3EAF0A3E9F0AA
:1032BE00E4A3F07F071234877520008F2130061E9D
:1032CE00C2E9900101E0FBA3E0FAA3E0F990010945
:1032DE007414F07F6112337F9001047401F0AD21FC
:0C32EE007F271235ADD2E9900104E0FF0B
:0132FA0022B1
:1033400090013DEBF0A3EAF0A3E9F07DFF7F2712A7
:1033500035AD7DFF7FE11235ADC2E990013DE0FB67
:10336000A3E0FAA3E0F99001007414F07FA01233F7
:0F337000F57D0E7F201235ADD2E97F0A02363788
:1032FB00E4900101F0A3F0C3900102E09F90010163
:10330B00E09E500EA3E004F070ED900101E004F09C
:10331B0080E5E4900101F0A3F0C3900102E09F90DF
:10332B000101E09E500EA3E004F070ED900101E06E
:04333B0004F080E535
:01333F00226B
:0A363700EFD3940040031F80F72238
:10326800C2E9D2EAC2EB7B017A0179389001007495
:1032780005F07F301233F57B017A01793390010034
:103288007405F07F2A1233F57D017F211235AD7D5B
:10329800017F221235AD7D6E7F251235AD7D147FFD
:0B32A800311235AD7D277F260235ADC9
:0A342E00EBF0A3EAF0A3E9F0C2EA14
:02343800AE07DD
:10343A00E4FDEE339290EE25E0FED2EB7F0C1236DD
:10344A0037A291E4334EFE7F0C123637C2EB0DEDF4
:05345A00B408DFAF061D
:01345F00224A
:02348700AE078E
:10348900C2EA7F0C123637AF061234387F0C123677
:1034990037E4FF123438AE077F0C123637D2EAAF61
:0134A900061C
:0134AA0022FF
:0235AD00AC056B
:1035AF00C2EA123438AB07AF04123438D2EAAF0391
:0135BF0022E9
:03337F00900106B4
:1033820012342E90010AEFF0E4FC900109E0FFEC08
:10339200C39F501CE4FF123438900106E0FBA3E007
:1033A200FAA3E0F98C82758300EF1221D40C80DA43
:0733B200D2EA90010AE0FFDE
:0133B90022F1
:0333F5009000FD48
:1033F80012342E900101EFF0E4FC900100E0FFECA4
:10340800C39F501A9000FDE0FBA3E475F001122160
:10341800F6A9F0FA1221BBFF1234380C80DCD2EA8C
:05342800900101E0FF2E
:01342D00227C
:0C361F00C2E97D0F7F201235ADD2E922F8
:10353F00759850438E40538EFE53890F758BC3750C
:09354F008DFFC2ABD28ED2AF2277
:030023000235F9AA
:0D35F900309802C298309904C299C2123273
:03362B00A3E0FF1A
:09362E002012FDEFD212F59922E1
:0E2E5900900127EEF0A3EFF0A3ECF0A3EDF054
:102E6700E4FDD2AC7FAA12362E12362E7F0212361E
:102E77002E7F0C12362E90012712362B900127E059
:102E8700FF12362E90012912362B900129E0FF12EE
:102E9700362EAF0312362EEAFF12362E90012DA3DF
:102EA700E0FF12362E90012DE0FF12362E90012FF3
:102EB700A3E0FF12362E90012FE0FF12362E90016D
:102EC70031A3E0FF12362E900131E0FF12362EEDCE
:102ED70024AA24AAFD0D0D740C2DFD900127E0FFF7
:102EE700EF2DFDA3E02DFDA3E0FFEF2DFDA3E02DCA
:102EF700FDEAFFEF2D2BFD90012DE0FAA3E0FBEAA1
:102F0700FFEF2DFDEB2DFDA3E0FAA3E0FBEAFFEFBA
:102F17002DFDEB2DFDA3E0FAA3E0FBEAFFEF2DFD6E
:092F2700EB2DFDFF12362EC2ACA9
:012F3000227E
:102A270004733F800000047700000000047B00006F
:102A37000000047F00000000046700000000046B32
:0A2A470000000000046F0000000012
:060FE50090010B122277BF
:100FEB00787312221A7873122242121E8B783F12D8
:100FFB00226B787712221A7873122242121E8B7888
:10100B004312226B787B12221A7873122242121E21
:10101B008B784712226B787F12221A787312224236
:10102B00121E8B784B12226B787712221A7877125A
:10103B002242121E8B784F12226B787B12221A7867
:10104B0077122242121E8B785312226B787F122258
:10105B001A7877122242121E8B785712226B787BEA
:10106B0012221A787B122242121E8B785B12226B91
:10107B00787F12221A787B122242121E8B785F1213
:10108B00226B787F12221A787F122242121E8B78E3
:10109B006312226B90011BE0FCA3E0FDA3E0FEA317
:1010AB00E0FFA804A905AA06FB121E8BC004C0050D
:1010BB00C006C007900117E0FCA3E0FDA3E0FEA370
:1010CB00E0FFA804A905AA06FB121E8BD003D002D1
:1010DB00D001D000121D9AC004C005C006C00790F5
:1010EB00011FE0FCA3E0FDA3E0FEA3E0FFA804A921
:1010FB0005AA06FB121E8BD003D002D001D0001222
:10110B001D9A122F35782312226B900117E0FCA346
:10111B00E0FDA3E0FEA3E0FF7823122242121F940E
:10112B0090011712227790011BE0FCA3E0FDA3E0D6
:10113B00FEA3E0FF7823122242121F9490011B1290
:10114B00227790011FE0FCA3E0FDA3E0FEA3E0FFEC
:10115B007823122242121F9490011F122277784794
:10116B00122242C000785712221AD000121D96E4A8
:10117B00FBFAF97840121E8B782712226B785F12DC
:10118B00221A7843122242121D9AE4FBFAF9784094
:10119B00121E8B782B12226B784F122242C00078D2
:1011AB003F12221AD000121D96785B122242121D9A
:1011BB00967863122242121D9A782F12226B782B8B
:1011CB0012221A90011FE0F8A3E0F9A3E0FAA3E0C2
:1011DB00FB121E8BC004C005C006C007782F12225D
:1011EB001A90011BE0F8A3E0F9A3E0FAA3E0FB12CD
:1011FB001E8BD003D002D001D000121D9678331273
:10120B00226B782F12221A900117E0F8A3E0F9A3B2
:10121B00E0FAA3E0FB121E8BC004C005C006C0079A
:10122B00782712221A90011FE0F8A3E0F9A3E0FA45
:10123B00A3E0FB121E8BD003D002D001D000121DF5
:10124B0096783712226B782712221A90011BE0F83E
:10125B00A3E0F9A3E0FAA3E0FB121E8BC004C005C8
:10126B00C006C007782B12221A900117E0F8A3E0F2
:10127B00F9A3E0FAA3E0FB121E8BD003D002D0013E
:10128B00D000121D96783B12226B7867122242C057
:10129B0000C001C002C0037F6F7E127D837C3A7851
:1012AB0033122242121E8BD003D002D001D0001277
:1012BB001D9A786712226B786B122242C000C00114
:1012CB00C002C0037F6F7E127D837C3A7837122277
:1012DB0042121E8BD003D002D001D000121D9A787F
:1012EB006B12226B786F122242C000C001C002C089
:1012FB00037F6F7E127D837C3A783B122242121E53
:10130B008BD003D002D001D000121D9A786F12221D
:10131B006B7FCD7ECC7D4C7C3F7833122242121EEC
:10132B008B90010BE0F8A3E0F9A3E0FAA3E0FB122A
:10133B001D9A7867122242121D9A90010B12227786
:10134B007FCD7ECC7D4C7C3F7837122242121E8B98
:10135B0090010FE0F8A3E0F9A3E0FAA3E0FB121D64
:10136B009A786B122242121D9A90010F1222777FEC
:10137B00CD7ECC7D4C7C3F783B122242121E8B9053
:10138B000113E0F8A3E0F9A3E0FAA3E0FB121D9A26
:10139B00786F122242121D9A9001131222777873E2
:1013AB00122242C000C001C002C003787712221A79
:1013BB0012209E90010BE0F8A3E0F9A3E0FAA3E062
:1013CB00FB121E8BC004C005C006C00790010FE0C6
:1013DB00FCA3E0FDA3E0FEA3E0FF787B1222421208
:1013EB001E8BA804A905AA06AB07D007D006D0050B
:1013FB00D004121D96C004C005C006C0079001138F
:10140B00E0FCA3E0FDA3E0FEA3E0FF787F12224205
:10141B00121E8BA804A905AA06AB07D007D006D0CD
:10142B0005D004121D967B6F7A127983783B121EBE
:10143B008BD003D002D001D000121D9A78731222E8
:10144B006B7877122242C000C001C002C00390012A
:10145B0013E0FCA3E0FDA3E0FEA3E0FF787B1222E8
:10146B0042121E8BC004C005C006C00790010BE0E2
:10147B00FCA3E0FDA3E0FEA3E0FF7873122242126F
:10148B001E8BD003D002D001D000121D9AC004C015
:10149B0005C006C00790010FE0FCA3E0FDA3E0FE32
:1014AB00A3E0FF787F122242121E8BA804A905AA83
:1014BB0006AB07D007D006D005D004121D967B6F64
:1014CB007A127983783B121E8BD003D002D001D0D5
:1014DB0000121D9A787712226B787B122242C00081
:1014EB00C001C002C003900113E0FCA3E0FDA3E028
:1014FB00FEA3E0FF7877122242121E8BC004C005B8
:10150B00C006C00790010FE0FCA3E0FDA3E0FEA323
:10151B00E0FF7873122242121E8BD003D002D0014F
:10152B00D000121D96C004C005C006C00790010B69
:10153B00E0FCA3E0FDA3E0FEA3E0FF787F122242D4
:10154B00121E8BD003D002D001D000121D9A7B6FDC
:10155B007A127983783B121E8BD003D002D001D044
:10156B0000121D9A787B12226B787F122242C000E8
:10157B00C001C002C00390010FE0FCA3E0FDA3E09B
:10158B00FEA3E0FF7877122242121E8BC004C00527
:10159B00C006C007900113E0FCA3E0FDA3E0FEA38F
:1015AB00E0FF7873122242121E8BD003D002D001BF
:1015BB00D000121D9AC004C005C006C00790010BD5
:1015CB00E0FCA3E0FDA3E0FEA3E0FF787B12224248
:1015DB00121E8BA804A905AA06AB07D007D006D00C
:1015EB0005D004121D967B6F7A127983783B121EFD
:1015FB008BD003D002D001D000121D9A787F12221B
:10160B006B787712221A7877122242121E8BC00443
:10161B00C005C006C007787312221A7873122242D3
:10162B00121E8BD003D002D001D000121D9AC00421
:10163B00C005C006C007787B12221A787B122242A3
:10164B00121E8BD003D002D001D000121D9AC00401
:10165B00C005C006C007787F12221AA804A905AAE4
:10166B0006AB07121E8BD003D002D001D000121D87
:10167B009A122F35782312226B787312221A782341
:10168B00122242121F94787312226B787712221A4D
:10169B007823122242121F94787712226B787B12D6
:1016AB00221A7823122242121F94787B12226B7813
:1016BB007F12221A7823122242121F94787F122251
:1016CB006B787F12221A7877122242121E8BC0047B
:1016DB00C005C006C007787B12221A78731222420B
:1016EB00121E8BD003D002D001D000121D96E4FB4A
:1016FB00FAF97840121E8B1233BA7BE17A2E796598
:10170B007842121E8B9000DC122277787F12221AFD
:10171B00787B122242121E8BC004C005C006C00784
:10172B00787712221A7873122242121E8BD003D0B2
:10173B0002D001D000121D9AE4FBFAF97840121E78
:10174B008B1233BA7BE17A2E79657842121E8B901D
:05175B0000BE02227730
:1017600000E5E8EBECEEF0F200CBD0D6D8DCE0E41C
:101770000101050506060500040403030202010039
:101780000505040403030200050504040303020025
:101790000101050506060500040403030202010019
:1017A000FF0F01110F0F100F000F01110F100D107F
:1017B000001010100F0D0D0E000E0E0E0F100D0E5E
:1017C0000C000F01110F0F100F000F01110F100D62
:1017D00010001010100F0D0D0D0E000E0E0E0D0B43
:1017E0000B0C0B00FF0F010F0E0D0C0B000B0B0C65
:1017F0000D0D0B0D0F000F010F0E0D0F0C000E0D38
:101800000C100F0C0B000F0D100111100F00020235
:10181000020111100F000F0D1001111102000F1025
:101820001101020F0100FF0D000F04030202030269
:101830000101100100000F1001020003000F04035A
:10184000020003000201011001000304050111015F
:10185000000102010501110100010101070707064E
:101860000606060605030403040405050F0F0E0D06
:101870000C05000505050403020101020300020135
:1018800011100201030F0505050403040301020FF3
:10189000050403030403030403040302010001031A
:1018A00005060606050202040300000103050606FC
:1018B00006050202040304030201010102030110F0
:1018C0000207070701010F100B01020303050203C2
:1018D00002020502010F10110100000F05030201B1
:1018E000000F0503020302020100010107071005B2
:1018F00006050305000101070706000505010302AF
:1019000001030403011001060F0005000303051085
:10191000000202040D000101110106030201020090
:10192000050000030505050505030500030505057C
:101930000503020100030505060101000505050672
:101940000101000505050601010101010707070066
:101950000300030003020101010101020201010071
:10196000010201030503060503020102020301014E
:1019700000110B0C0D0D0D0D0E0D0C0B0C110B0CA5
:101980000C0C0D0D0C0B110B10110B100B0B0B0B8A
:101990000B0B0C0C0B0F00000102040503030201EA
:1019A000020202020301020201000F1001030303FD
:1019B000020102020203020100000F0303030202FC
:1019C00000101110100002001003030302010202B4
:1019D0000203020100101011011101030304111090
:1019E0000F020203100F1010110101020202011177
:1019F00000000404040304030202020203030302BE
:101A00000101010202020201110011111111011163
:101A1000060003020003010001110F100001021E65
:101A20000103000003030303030304030201101076
:101A3000040403010201000F010F0102030F0F0F45
:101A4000040303020202100302010101100201015A
:101A5000000F010F0102030F0F0F04030302020224
:101A600010030101010110020110011100000F100B
:101A700001010101011001000202010101100F0F1B
:101A80000F0F1001100201010111111111010203C8
:101A90000201020202010201100F100F10010110D9
:101AA000011003020201100201000F1001000101E8
:101AB000010110010F100F0F100F0F100101101076
:101AC0000F0F0D0C0D0C0C0D0C0C0D0F0F0F0D0C42
:101AD0000F100100100F100101100D0F1001001068
:101AE0000F100101100F0D0C0B0C0D0F100F10013A
:101AF000100001100F0D0C0B0C0D0C0D0B000F1036
:101B0000011001100F1001030D0D0C0C0C0C0B0D2E
:101B10000C0F10011001100F100103000D0D0C0D22
:101B20000D0C0D0C0B00000F0F100B0B0B0C0D0D03
:101B30000D0F10010F100F0D0D0F0C0C0D0C0B10D5
:101B4000100B0C0C0D0C0B0F0F01110F0F100F00D1
:101B50000F01110F100D101010100F0D0D0D0E0EA6
:101B60000E0F100D000C000F000F021101000D0EE2
:101B70000F101010100F10100F1010100C02010297
:101B800002020101111111111101110F10000C0DB0
:101B90000E0D0B0E0D0B0B000001020201000F05D4
:101BA0000302030001020201000F0503020101020A
:101BB0000201000F03020F030201020301100F10C4
:101BC0000E001001100302020100100110030201B7
:101BD00003110F110102011001020302100102039F
:101BE000020D030303110203000F0F100110020383
:101BF000000F0503020103030410030202010304A2
:101C000003030202020302010605030203030201A9
:101C10001001010F0103020202020201020110067B
:101C2000050302030302011001010F010302020276
:101C30000202050202010203000D1011010101114F
:101C4000100F110204030001020305040302010244
:101C500010110D10110101020111100F11040300E8
:101C6000010C030504030201020203020101000446
:101C700005010E0E000111100F0F00101010010EC3
:101C80000E000E0E0D0C0D001011010E0E000111B4
:101C9000100E0E0F0E000F0E0D0B0B0C000C0D0096
:101CA0000D0D0E0F0F0E0D0B0F0F0E0D0B0F0C0D5C
:101CB000000D0D0E0F0F010B0B0B0F0E0D0B0F0D6B
:101CC0000D0F0C0B0C0D0D100B000B0B1100101158
:101CD0000B00000F010203020101010500030505CD
:101CE00003030203040500030202010110010210B4
:101CF000000F0F100101100110010C0D0011110156
:101D00000B0C100F100F000B0B0B0B0C0F0D0F0D0E
:101D100000101010110B0B0B0F0C0D000C0C100D04
:101D20000C0C0B100C0B000F000F0F0D100F0D0003
:101D30000D000C0B000B0101010110100D0F000F25
:101D40000F1001100100100F0F0B00100B0D0C0BEA
:101D50000B0F0B0001020202010600020304050042
:101D6000010203050404030403020203000102014B
:101D7000060007010202010000040302010103043E
:101D80000405040601070706050003020105030315
:031D90000003004D
:1026B2009000FAE4F0A304F0E4F594F593F592F5B2
:1026C20091F596F595F5B2F5B1F5B4F5B3F5CAF510
:1026D200C9F5CCF5CBF5E2F5E175960EF59575B237
:1026E20080F5B112360675BA8075F1B090FFF274BA
:1026F20010F0E4F5F6F5F790FFF07403F0A374E937
:10270200F090FF04E4F090FF14F090FF24F090FFAB
:1027120034F090FF007403F0A374E8F0A37403F0A4
:10272200A374E9F090FF107403F0A374E8F0A374AB
:1027320003F0A374E9F090FF207403F0A374E8F0AF
:10274200A37403F0A374E9F090FF307403F0A37450
:10275200E8F0A37403F0A374E9F075F58F1231CF9A
:102762007F607EEA1232FB7F307E751232FB75D7B4
:10277200E875D6FF7F607EEA1232FB7F307E7512EB
:1027820032FB75D7E575D6FF7F607EEA1232FB7F9A
:10279200307E751232FB9001117403F074E812312D
:1027A200D77F607EEA1232FB7F607EEA1232FB7FC5
:1027B200607EEA1232FB7F607EEA1232FB75D7E559
:1027C2001231CC7F607EEA1232FB7F307E7512328C
:1027D200FB9001117403F0A374E81231D87F607E7C
:1027E200EA1232FB1231CF7F607EEA1232FB7F3077
:1027F2007E751232FB9001117403F0A374E812315A
:10280200D87F607EEA1232FB1231CF7F607EEA12FD
:1028120032FB7F307E751232FB9001117403F0A3FC
:1028220074E81231D812326812361F9000FAE07042
:1028320002A3E070030229D59000C7E070597F60BF
:102842007EEA1232FB7F607EEA1232FB7F607EEA12
:102852001232FB7F607EEA1232FB7F607EEA123226
:10286200FB7F607EEA1232FB7F607EEA1232FB7FE0
:10287200607EEA1232FB7F607EEA1232FB7F607E6C
:10288200EA1232FB7F607EEA1232FB7F607EEA123E
:1028920032FB7F041222B49000C7E070597F607E41
:1028A200EA1232FB7F607EEA1232FB7F607EEA121E
:1028B20032FB7F607EEA1232FB7F607EEA1232FBDD
:1028C2007F607EEA1232FB7F607EEA1232FB7F601B
:1028D2007EEA1232FB7F607EEA1232FB7F607EEA82
:1028E2001232FB7F607EEA1232FB7F607EEA123296
:1028F200FB7F021222B49000C7E070597F607EEA2B
:102902001232FB7F607EEA1232FB7F607EEA123275
:10291200FB7F607EEA1232FB7F607EEA1232FB7F2F
:10292200607EEA1232FB7F607EEA1232FB7F607EBB
:10293200EA1232FB7F607EEA1232FB7F607EEA128D
:1029420032FB7F607EEA1232FB7F607EEA1232FB4C
:102952007F011222B49000C7E070597F607EEA12B4
:1029620032FB7F607EEA1232FB7F607EEA1232FB2C
:102972007F607EEA1232FB7F607EEA1232FB7F606A
:102982007EEA1232FB7F607EEA1232FB7F607EEAD1
:102992001232FB7F607EEA1232FB7F607EEA1232E5
:1029A200FB7F607EEA1232FB7F607EEA1232FB7F9F
:1029B200031222B47B017A0079C71232B39000C7A6
:1029C200E0D39400500302282DE49000FAF0A3F023
:1029D20002282D75D7E51231CF7F607EEA1232FBD5
:1029E2007F607EEA1232FB7F607EEA1232FB7F60FA
:1029F2007EEA1232FB7F607EEA1232FB7F607EEA61
:102A02001232FB9001117403F0A374E81231D890D2
:042A1200FFF2E4F0FB
:012A1600229D
:1031CC0075D6FF9001117403F074C0A3F0FB7A0361
:0631DC00FD7C03FF7E03F1
:1031E20090010BEEF0A3EFF090010BE090FF00F0E6
:1031F20090010BA3E090FF01F0EC90FF10F0A3ED23
:10320200F0EA90FF20F0A3EBF0900111E0FCA3E0C4
:0A321200FDEC90FF30F0A3EDF02278
:0522B4009000FCEFF0BA
:1022B900A3E4F0A304F0E4A3F0A3F01231CC90005E
:1022C900FCE0640160030223C19000FDE07002A3F9
:1022D900E070030223C17B017A0079C71232B390FF
:1022E90000C7E0D3940040030223C19000FFE0FE41
:1022F900A3E02470F58274173EF583E4937032905D
:1023090001117403F0A374E81231D87F607EEA12D8
:1023190032FB7F607EEA1232FB7F607EEA1232FB7B
:102329001231CF900100E004F070069000FFE00444
:10233900F09000FFE0FEA3E02470F58274173EF5EB
:1023490083E493FFC3940A5006EF901760801590B9
:1023590000FFE0FEA3E02470F58274173EF583E4E4
:102369009390175E93F5D7900100E004F070069002
:1023790000FFE004F09000FFE0FEA3E02470F58286
:1023890074173EF583E493B4FF07E49000FDF0A3CE
:10239900F07F607EEA1232FB7F607EEA1232FB90A8
:1023A90001117403F0A374E81231D87F307E7512DD
:1023B90032FB1231CF0222D29000FCE064026003AA
:1023C9000224BB9000FDE07002A3E070030224BB6D
:1023D9007B017A0079C71232B39000C7E0D3940029
:1023E90040030224BB9000FFE0FEA3E024A1F58294
:1023F90074173EF583E49370329001117403F0A3CE
:1024090074E81231D87F607EEA1232FB7F607EEA7F
:102419001232FB7F607EEA1232FB1231CF9001004B
:10242900E004F070069000FFE004F09000FFE0FE89
:10243900A3E024A1F58274173EF583E493FFC394C6
:102449000A5006EF90176080159000FFE0FEA3E0A8
:1024590024A1F58274173EF583E49390175E93F5F2
:10246900D7900100E004F070069000FFE004F090BE
:1024790000FFE0FEA3E024A1F58274173EF583E492
:1024890093B4FF07E49000FDF0A3F07FE87EFD120E
:1024990032FB7FE87EFD1232FB9001117403F0A339
:1024A90074E81231D87F307E751232FB1231CF02B7
:1024B90023CC9000FCE0640360030225AE9000FD8C
:1024C900E07002A3E070030225AE7B017A0079C7B0
:1024D9001232B39000C7E0D3940040030225AE90B6
:1024E90000FFE0FEA3E024E5F58274173EF583E4DE
:1024F90093702B9001117403F0A374E81231D87F03
:10250900607EEA1232FB7F307E751232FB1231CFC8
:10251900900100E004F070069000FFE004F09000E4
:10252900FFE0FEA3E024E5F58274173EF583E4930A
:10253900FFC3940A5006EF90176080159000FFE0E2
:10254900FEA3E024E5F58274173EF583E493901722
:102559005E93F5D7900100E004F070069000FFE06B
:1025690004F09000FFE0FEA3E024E5F58274173E35
:10257900F583E493B4FF07E49000FDF0A3F07F60D6
:102589007EEA1232FB7F607EEA1232FB90011174FF
:1025990003F0A374E81231D87F307E751232FB1232
:1025A90031CF0224C69000FCE06404600302269C3B
:1025B9009000FDE07002A3E0700302269C7B017A83
:1025C9000079C71232B39000C7E0D39400400302E8
:1025D900269C9000FFE0FEA3E02427F58274183EB4
:1025E900F583E49370269001117403F0A374E81243
:1025F90031D87F607EEA1232FB1231CF900100E0C0
:1026090004F070CE9000FFE004F080C69000FFE077
:10261900FEA3E02427F58274183EF583E493FFC3F3
:10262900940A5006EF90176080159000FFE0FEA312
:10263900E02427F58274183EF583E49390175E939E
:10264900F5D7900100E004F070069000FFE004F077
:102659009000FFE0FEA3E02427F58274183EF5837D
:10266900E493B4FF07E49000FDF0A3F07FE87EFD5A
:102679001232FB7FE87EFD1232FB9001117403F0E8
:10268900A374E81231D87F307E751232FB1231CF34
:102699000225B99001117403F0A374E8F0FB7A03E1
:0926A900FD7C03FF7E030231E217
:102A510044000C0000000044001400000000440089
:102A6100E6000000004100C2004100C3004100C671
:102A7100004100DB004100E0004100E1004200A80C
:102A810000004200AA00004200AC00004200AE007B
:102A9100004200BC0000420030000042003600004D
:102AA100420038000042003A000042009200004219
:102AB1000098000042009E00004100800041008912
:102AC100005400C7000000000000000000000000EA
:102AD100000000000000000044006A000000004403
:102AE100006E00000000440072000000004400B0CD
:102AF100000000004400B4000000004400B80000E1
:102B010000004400EE000000004400E2000000006C
:102B11004400F6000000004400560000000044009C
:102B21005E00000000440066000000004400240034
:102B310000000044002C00000000440032000000AE
:102B41000044004400000000440040000000004434
:102B5100004800000000440020000000004400285C
:102B6100000000004400DC000000004400BE000042
:102B710000004400080000000044007C0000000048
:102B81004400850000000044004E000000004400A5
:102B910018000000004400A0420C000044008A3CE0
:102BA10023D70A440000000000004400943ECCCC2E
:102BB100CD4400783C23D70A44005A411000004418
:102BC10000EA000000004400520000000044001C24
:102BD100000000004400A4420C000044008E3C238D
:102BE100D70A4400040000000044009A3ECCCCCD3A
:102BF1004400813C23D70A44006241100000440094
:102C0100F20000000044003C40A0000044001040DD
:102C1100800000420076000042004C00004200C4E7
:022C21000000B1
:0B306900E0FCA3E0FDA3E0FEA3E0FFFD
:1030740090010B122277900113E0FCA3E0FDA3E082
:10308400FEA3E0FF90010BE0F8A3E0F9A3E0FAA3AC
:10309400E0FB122031600740059001138024900169
:1030A4000FE0FCA3E0FDA3E0FEA3E0FF90010BE032
:1030B400F8A3E0F9A3E0FAA3E0FB12203150149046
:1030C400010FE0FCA3E0FDA3E0FEA3E0FF90010BF1
:1030D40012227790010BE0FCA3E0FDA3E0FEA3E045
:0230E400FF22C9
:03000B00020026CA
:10002600C0E0C0F0C083C082C0D075D000C000C0A0
:1000360001C002C003C004C005C006C0079000CBC3
:10004600E0FCE41220B99000E6E0F8A3E0F9A3E0B2
:10005600FAA3E0FB122031505A9000CBE0FCE412E8
:1000660020B99000E6E0F8A3E0F9A3E0FAA3E0FBEC
:10007600121D96E4FBFAF9784012203140359000C3
:10008600E6E0FCA3E0FDA3E0FEA3E0FFE4FBFA79D3
:1000960080783F121D9A9000E61222779000E6E0E3
:1000A600FCA3E0FDA3E0FEA3E0FFE4FBFA79807881
:1000B6003F807E9000CBE0FCE41220B99000E6E0A1
:1000C600F8A3E0F9A3E0FAA3E0FB12203160674051
:1000D600659000CBE0FCE41220B9A804A905AA06A5
:1000E600AB079000E6E0FCA3E0FDA3E0FEA3E0FF83
:1000F600121D96E4FBFAF978401220314038900040
:10010600E6E0FCA3E0FDA3E0FEA3E0FFE4FBFA7952
:100116008078BF121D9A9000E61222779000E6E0E2
:10012600FCA3E0FDA3E0FEA3E0FFE4FBFA79807800
:10013600BF121D9A80099000CBE0FCE41220B99012
:1001460000E61222779000C8E0FCE41220B9900085
:10015600B0E0F8A3E0F9A3E0FAA3E0FB12203150E7
:100166001B9000B0E0FCA3E0FDA3E0FEA3E0FF7B54
:10017600CD7ACC794C783E121D9A80379000C8E033
:10018600FCE41220B99000B0E0F8A3E0F9A3E0FA8D
:10019600A3E0FB1220316021401F9000B0E0FCA3D9
:1001A600E0FDA3E0FEA3E0FF7BCD7ACC794C783E60
:1001B600121D969000B01222779000C9E0FCE4125E
:1001C60020B99000B4E0F8A3E0F9A3E0FAA3E0FBBD
:1001D600122031501B9000B4E0FCA3E0FDA3E0FE2A
:1001E600A3E0FF7BCD7ACC794C783E121D9A8037FE
:1001F6009000C9E0FCE41220B99000B4E0F8A3E056
:10020600F9A3E0FAA3E0FB1220316021401F900021
:10021600B4E0FCA3E0FDA3E0FEA3E0FF7BCD7ACC37
:10022600794C783E121D969000B41222779000CB3E
:10023600E0FCE41220B9E4FBFA79407840121E8B08
:10024600E4FBFA79807840121F949000E612227738
:10025600E4FFFE7DC87C429000E6E0F8A3E0F9A347
:10026600E0FAA3E0FB122031603C403A9000C7E080
:10027600FF900076E0B4002CA3E0B5072790004D70
:10028600E004F0700690004CE004F0D390004DE0DE
:10029600948090004CE0648094804011E4F0A37454
:1002A60080F08009800090004CE4F0A3F090004CB0
:1002B600E07004A3E0648070129000E6122283428C
:1002C600CA00009000C87480F0A3F09000C7E0FF59
:1002D600900076E4F0A3EFF09000C5E004F070061D
:1002E6009000C4E004F09000C4E07004A3E06482CF
:1002F60070089000C4F0A37481F07F3D12350CACF9
:1003060006AD07E41220B490005E1222777F3B12FE
:10031600350CAC06AD07E41220B4900056122277D5
:100326007F3F12350CAC06AD07E41220B490006690
:100336001222777F4312350C900092E0FCA3E0FD79
:10034600C3EF9DFDEE9CFCE41220B49000E2122265
:10035600777F4512350C900098E0FCA3E0FDC3EFD3
:100366009DFDEE9CFCE41220B49000EE1222777FF5
:100376004712350C90009EE0FCA3E0FDC3EF9DFD07
:10038600EE9CFCE41220B49000F612227790004016
:10039600E0FCA3E0FDA3E0FEA3E0FF90001812221C
:1003A60077900044E0FCA3E0FDA3E0FEA3E0FF900D
:1003B600001C122277E4FBFAF97846900056E0FC1E
:1003C600A3E0FDA3E0FEA3E0FF121F949000241219
:1003D6002277E4FBFAF97846900066E0FCA3E0FD9C
:1003E600A3E0FEA3E0FF121F94900032122277E4EE
:1003F600FBFAF9784690005EE0FCA3E0FDA3E0FE80
:10040600A3E0FF121F9490002C122277E4FBFA79E6
:100416008378429000E2E0FCA3E0FDA3E0FEA3E0C7
:10042600FF121F94900040122277E4FBFA7983783A
:10043600429000EEE0FCA3E0FDA3E0FEA3E0FF1285
:100446001F94900044122277E4FBFA798378429055
:1004560000F6E0FCA3E0FDA3E0FEA3E0FF121F947C
:100466009000481222777F357EFA7D8E7C3C900084
:1004760040E0F8A3E0F9A3E0FAA3E0FB121E8BC06C
:1004860004C005C006C0077F357EFA7D8E7C3C9091
:100496000044E0F8A3E0F9A3E0FAA3E0FB121E8B08
:1004A60090010F1222777F357EFA7D8E7C3C90007C
:1004B60048E0F8A3E0F9A3E0FAA3E0FB121E8B9054
:1004C6000113122277900024E0FCA3E0FDA3E0FED6
:1004D600A3E0FF90011712227790002CE0FCA3E026
:1004E600FDA3E0FEA3E0FF90011B122277900032ED
:1004F600E0FCA3E0FDA3E0FEA3E0FF90011F1222B3
:1005060077D007D006D005D004120FE5900032E070
:10051600FCA3E0FDA3E0FEA3E0FFA804A905AA064C
:10052600FB121E8BC004C005C006C00790002CE05D
:10053600FCA3E0FDA3E0FEA3E0FFA804A905AA062C
:10054600FB121E8BD003D002D001D000121D9A12CE
:100556002F35A804A905AA06AB07900024E0FCA342
:10056600E0FDA3E0FEA3E0FF121F94122C447BE003
:100576007A2E79657842121E8B900020122277908F
:100586000032E0FCA3E0FDA3E0FEA3E0FFA804A97F
:1005960005AA06FB121E8BC004C005C006C0079044
:1005A6000024E0FCA3E0FDA3E0FEA3E0FFA804A96D
:1005B60005AA06FB121E8BD003D002D001D0001272
:1005C6001D9A122F35A804A905AA06AB0790002C80
:1005D600E0FCA3E0FDA3E0FEA3E0FF121F94122CB3
:1005E600447BE07A2E79657842121E8B90002812A1
:1005F60022779000C8E0FCE41220B9E4FBFAF9780F
:10060600C3121D9AE4FBFA79E07840121F94900019
:10061600B01222779000B0E0F8A3E0F9A3E0FAA3C5
:10062600E0FB9000DCE0FCA3E0FDA3E0FEA3E0FF1E
:10063600121D96C004C005C006C007900080E0FCED
:100646001220B9A804A905AA06AB07D007D006D080
:1006560005D004121D9690007C122277E4FFFE7DE1
:10066600A07C419000E6E0F8A3E0F9A3E0FAA3E05D
:10067600FB12203190000060264024E0FCA3E0FD40
:10068600A3E0FEA3E0FF90007CE0F8A3E0F9A3E07E
:10069600FAA3E0FB121D9A9000001222778007123F
:1006A60022830000000090010F122283C3FA00008B
:1006B60090011312228343FA000090000012306961
:1006C60090000012227790008AE0FCA3E0FDA3E0F0
:1006D600FEA3E0FF900000E0F8A3E0F9A3E0FAA390
:1006E600E0FB121E8BC004C005C006C0079000A028
:1006F600E0FCA3E0FDA3E0FEA3E0FF90007CE0F8B1
:10070600A3E0F9A3E0FAA3E0FB121E8BD003D0020C
:10071600D001D000121D9A90004E122277E4FFFEFF
:100726007DA07C419000E6E0F8A3E0F9A3E0FAA3FF
:10073600E0FB1220319000EA60474045E0F8A3E074
:10074600F9A3E0FAA3E0FBC000C001C002C0039019
:10075600004EE0F8A3E0F9A3E0FAA3E0FB90004422
:10076600E0FCA3E0FDA3E0FEA3E0FF121D96D0038C
:10077600D002D001D000121D9A9000EA1222778092
:10078600071222830000000090010F122283C3FA91
:10079600000090011312228343FA00009000EA122F
:1007A60030699000EA12227790004EE0FCA3E0FD4B
:1007B600A3E0FEA3E0FF900044E0F8A3E0F9A3E085
:1007C600FAA3E0FB121D9A900094E0F8A3E0F9A3C7
:1007D600E0FAA3E0FB121E8BC004C005C006C007EA
:1007E600900078E0FCA3E0FDA3E0FEA3E0FF90000C
:1007F600EAE0F8A3E0F9A3E0FAA3E0FB121E8BD02F
:1008060003D002D001D000121D9AC004C005C00654
:10081600C00790001CE0F8A3E0F9A3E0FAA3E0FB10
:10082600900044E0FCA3E0FDA3E0FEA3E0FF121D60
:100836009690005AE0F8A3E0F9A3E0FAA3E0FB12D1
:100846001E8BD003D002D001D000121D9A90006AF0
:1008560012227790010F122283C47A0000900113AE
:10086600122283447A000090006A12306990006A6E
:1008760012227790006AE0FCA3E0FDA3E0FEA3E06D
:10088600FF12209E1220ED9000A8EEF0A3EFF0904C
:10089600006AE0FCA3E0FDA3E0FEA3E0FF1220ED6A
:1008A6009000ACEEF0A3EFF09000C9E0FFC39471A6
:1008B6004009EFD3948F50037480F09000C9E0FC98
:1008C600E41220B9E4FBFAF978C3121D9AE4FBFAA4
:1008D60079E07840121F949000B41222779000B409
:1008E600E0FCA3E0FDA3E0FEA3E0FF9000BEE0F87D
:1008F600A3E0F9A3E0FAA3E0FB121D9AC004C00529
:10090600C006C007900089E0FC1220B9A804A9051A
:10091600AA06AB07D007D006D005D004121D9690C4
:100926000085122277E4FFFE7DA07C419000E6E080
:10093600F8A3E0F9A3E0FAA3E0FB1220319000044B
:1009460060264024E0FCA3E0FDA3E0FEA3E0FF90C8
:100956000085E0F8A3E0F9A3E0FAA3E0FB121D9AF4
:100966009000041222778007122283000000009074
:10097600010F122283C3FA0000900113122283434F
:10098600FA00009000041230699000041222779059
:10099600008EE0FCA3E0FDA3E0FEA3E0FF900004D0
:1009A600E0F8A3E0F9A3E0FAA3E0FB121E8BC00473
:1009B600C005C006C0079000A4E0FCA3E0FDA3E0CC
:1009C600FEA3E0FF900085E0F8A3E0F9A3E0FAA318
:1009D600E0FB121E8BD003D002D001D000121D9A6C
:1009E600900052122277E4FFFE7DA07C419000E643
:1009F600E0F8A3E0F9A3E0FAA3E0FB1220319000AF
:100A0600F260474045E0F8A3E0F9A3E0FAA3E0FB73
:100A1600C000C001C002C003900052E0F8A3E0F994
:100A2600A3E0FAA3E0FB900040E0FCA3E0FDA3E016
:100A3600FEA3E0FF121D96D003D002D001D0001213
:100A46001D9A9000F212227780071222830000007E
:100A56000090010F122283C3FA00009001131222A4
:100A66008343FA00009000F21230699000F21222DD
:100A760077900052E0FCA3E0FDA3E0FEA3E0FF9028
:100A86000040E0F8A3E0F9A3E0FAA3E0FB121D9A08
:100A960090009AE0F8A3E0F9A3E0FAA3E0FB121EA7
:100AA6008BC004C005C006C007900081E0FCA3E02F
:100AB600FDA3E0FEA3E0FF9000F2E0F8A3E0F9A3B7
:100AC600E0FAA3E0FB121E8BD003D002D001D000C7
:100AD600121D9AC004C005C006C007900018E0F8B1
:100AE600A3E0F9A3E0FAA3E0FB900040E0FCA3E05A
:100AF600FDA3E0FEA3E0FF121D96900062E0F8A3BE
:100B0600E0F9A3E0FAA3E0FB121E8BD003D002D0DB
:100B160001D000121D9A90006E12227790010F12DA
:100B26002283C47A0000900113122283447A0000C3
:100B360090006E12306990006E12227790006EE07F
:100B4600FCA3E0FDA3E0FEA3E0FF1220ED9000AEC3
:100B5600EEF0A3EFF090006EE0FCA3E0FDA3E0FE54
:100B6600A3E0FF12209E1220ED9000AAEEF0A3EF64
:100B7600F09000CAE0FCE41220B9E4FBFAF978C36D
:100B8600121D9AE4FBFA79C0783F121E8B9000B8CA
:100B9600122277900048E0FCA3E0FDA3E0FEA3E06C
:100BA600FF9000B8E0F8A3E0F9A3E0FAA3E0FB1297
:100BB6001D96900048122277900008E0F8A3E0F90D
:100BC600A3E0FAA3E0FB900048E0FCA3E0FDA3E06D
:100BD600FEA3E0FF121D96900010E0F8A3E0F9A333
:100BE600E0FAA3E0FB121E8BC004C005C006C007D6
:100BF60090003CE0FCA3E0FDA3E0FEA3E0FF900034
:100C060048E0F8A3E0F9A3E0FAA3E0FB121E8BD0BC
:100C160003D002D001D000121D9A900072122277E2
:100C2600900048E0FCA3E0FDA3E0FEA3E0FF9000F7
:100C3600081222779000A8E0FCA3E0FDEC1220B495
:100C4600900072E0F8A3E0F9A3E0FAA3E0FB121D1E
:100C56009A1220ED9000A8EEF0A3EFF09000ACE021
:100C6600FCA3E0FDEC1220B4900072E0F8A3E0F9DA
:100C7600A3E0FAA3E0FB121D9A1220ED9000ACEE61
:100C8600F0A3EFF09000AAE0FCA3E0FDEC1220B484
:100C9600900072E0F8A3E0F9A3E0FAA3E0FB121DCE
:100CA600961220ED9000AAEEF0A3EFF09000AEE0D1
:100CB600FCA3E0FDEC1220B4900072E0F8A3E0F98A
:100CC600A3E0FAA3E0FB121D961220ED9000AEEE13
:100CD600F0A3EFF090007CE0FCA3E0FDA3E0FEA310
:100CE600E0FF1220ED9000C2EFF0900085E0FCA33B
:100CF600E0FDA3E0FEA3E0FF1220ED9000C3EFF0BD
:100D0600900020E0FCA3E0FDA3E0FEA3E0FF12209C
:100D1600ED9000C6EFF0900028E0FCA3E0FDA3E014
:100D2600FEA3E0FF1220ED9000DBEFF09000E0E480
:100D3600F0A3F0FFFE7D807C409000E6E0F8A3E0A3
:100D4600F9A3E0FAA3E0FB121E8BA804A905AA06E4
:100D5600AB07E4FFFE7D7A7C44121D96C004C005F5
:100D6600C006C0079000A8E0FCA3E0FDEC1220B48A
:100D7600D003D002D001D000121D9A1220ED9000AF
:100D860030EEF0A3EFF0FDAC06EC1220B4C004C0C8
:100D960005C006C00790010F1222830000000090D4
:100DA6000113122283447A0000D007D006D005D062
:100DB600041230741220ED900030EEF0A3EFF0E450
:100DC600FFFE7D807C409000E6E0F8A3E0F9A3E01A
:100DD600FAA3E0FB121E8BA804A905AA06AB07E43A
:100DE600FFFE7D7A7C44121D96C004C005C006C075
:100DF600079000AAE0FCA3E0FDEC1220B4D003D0DB
:100E060002D001D000121D9A1220ED900036EEF0AD
:100E1600A3EFF0FDAC06EC1220B4C004C005C0067A
:100E2600C00790010F1222830000000090011312E8
:100E36002283447A0000D007D006D005D0041230B1
:100E4600741220ED900036EEF0A3EFF0E4FFFE7D85
:100E5600807C409000E6E0F8A3E0F9A3E0FAA3E086
:100E6600FB121E8BA804A905AA06AB07E4FFFE7DAC
:100E76007A7C44121D96C004C005C006C0079000C7
:100E8600ACE0FCA3E0FDEC1220B4D003D002D0010C
:100E9600D000121D9A1220ED900038EEF0A3EFF06C
:100EA600900030E0FCA3E0FDEC1220B4C004C005C5
:100EB600C006C00790010F122283000000009001B7
:100EC60013122283447A0000D007D006D005D0043E
:100ED6001230741220ED900038EEF0A3EFF0E4FF2C
:100EE600FE7D807C409000E6E0F8A3E0F9A3E0FAFE
:100EF600A3E0FB121E8BA804A905AA06AB07E4FF14
:100F0600FE7D7A7C44121D96C004C005C006C0074B
:100F16009000AEE0FCA3E0FDEC1220B4D003D002BA
:100F2600D001D000121D9A1220ED90003AEEF0A3E7
:100F3600EFF0FDAC06EC1220B4C004C005C006C03C
:100F46000790010F12228300000000900113122265
:100F560083447A0000D007D006D005D0041230743E
:100F66001220ED90003AEEF0A3EFF0E4FFFE7D20B4
:100F76007C419000E6E0F8A3E0F9A3E0FAA3E0FBE9
:100F86001220314029900038E0FCA3E0FD900030AB
:100F9600E0FAA3E0FB90003AE0FFA3E0900111CF56
:100FA600F0A3EFF0900036E0FEA3E0FF801390017F
:100FB600117403F0A374E8F0FB7A03FD7C03FF7E53
:100FC600031231E2D007D006D005D004D003D002F8
:0F0FD600D001D000D0D0D082D083D0F0D0E03284
:102D46001226B21230E61234AB12353F1235859098
:102D560000C87480F0A3F0A3F0E4A3F07FF47E0132
:102D66001232FB7B017A0079C71232B39000CCE0B5
:102D760064017067D39000C5E094809000C4E0645D
:102D8600809480405612315DE49000CCF0C2AF9042
:102D9600FFF27410F075D7EB75D6FF90011174032E
:102DA600F0A374C0F0FB7A03FD7C03FF7E031231AF
:102DB600E27F607EEA1232FB9001117403F0A37485
:102DC600E8F0FB7A03FD7C03FF7E031231E290FFFD
:102DD600F2E4F0D2AF9000C4F0A3F09000CDE0642E
:102DE600016003022D62D39000C5E094809000C478
:102DF600E0648094805003022D6212321CE490003D
:102E0600CDF0C2AF90FFF27410F075D7EB75D6FF18
:102E16009001117403F0A374C0F0FB7A03FD7C03E8
:102E2600FF7E031231E27F607EEA1232FB900111CF
:102E36007403F0A374E8F0FB7A03FD7C03FF7E03C2
:102E46001231E290FFF2E4F0D2AF9000C4F0A3F0AA
:032E5600022D62E8
:10358500538E7F5389F075A882758A15758CB7C2DD
:043595008DD28C2225
:10359900438E4053890F75A88A758B54758DF2C275
:0435A9008FD28E220D
:0D360600438E0475D7EB75D6FF438E10225E
:101D9300022159E86480F8E933E83360110460F004
:101DA300ED33EC337009E8FCE9FDEAFEEBFF2204B6
:101DB30060DED3EB9FEA9EE99DE8C2E78CF0C2F7B1
:101DC30095F0400CE8CCF8E9CDF9EACEFAEBCFFB7D
:101DD30012212485D0F05804700320D5B3E8047091
:101DE300075002B2D502216392D5EC0460F7E4CC2C
:101DF300C0E0C398F8603B94186008400DD0E0FB46
:101E030002213BE4FBFAC9FC8028E830E406E4C97C
:101E1300FBE4CAFCE830E305E4C9CACBFCE8540799
:101E23006010F8C3E913F9EA13FAEB13FBEC13FCA4
:101E3300D8F130F52FC3E49CFCEF9BFFEE9AFEED47
:101E430099FDD0E0FBEF4E4D4C701222DB030221D3
:101E530060EC2CFCEF33FFEE33FEED33FDED30E7AA
:101E6300EB02213BEF2BFFEE3AFEED39FDD0E0FB19
:101E730050130BBB0003022163ED13FDEE13FEEFC2
:081E830013FFEC13FC02213BEC
:101E8B00EC4D6011E8497017ED33EC3304600DE451
:101E9B00FCFFFEFD22E933E8330470F802215912EE
:101EAB00212458046009E4CC2481500628500902EF
:101EBB002163284003022160C0E0EB4A7044B980E3
:101ECB0006D0E0FB02214FEF4E701CBD8008EBFFEC
:101EDB00EAFEE9FD80EBE98DF0A4FEE5F0021F744C
:101EEB00E9CDF9EAFEEBFFEF89F0A4FCE5F0CE8932
:101EFB00F0A42EFFE435F0CD89F0A42DFEE435F0EF
:101F0B008067EF4E7005BD80D780C3EF8BF0A4AC1C
:101F1B00F0EE8BF0A42CFCE435F0F8EF8AF0A42C57
:101F2B00E5F038FCE433CB8DF0A42CFCE5F03BF86A
:101F3B00EE8AF0A42CFCE5F038F8E433CF89F0A45A
:101F4B002CFCE5F038CF3400CE89F0A42FFFE5F060
:101F5B003EFEE433C98DF0A42EFEE5F039CD8AF0B8
:101F6B00A42FFFE5F03EFEE43DFD33D0E0FB500730
:101F7B000BBB000F022163EC2CFCEF33FFEE33FEA7
:061F8B00ED33FD02213BD5
:101F9100022163EC5D046005E859047003022159D4
:101FA100122124580460F6EC4860F2EC7004FDFE46
:101FB100FF22C860DB2481C85009C3986002500623
:101FC1000221609850CAF582E9294B4A7005AB821B
:101FD10002214F75F0007C1A7880C3EF9BEE9AEDD9
:101FE10099400DC3EF9BFFEE9AFEED99FDE842F09B
:101FF100DC23ACF0D0E0FFD0E0FED0E0FDAB8220EE
:10200100E7101BEB60BAEC2CFCEF33FFEE33FEED77
:1020110033FD02213BE803F830E705C0F075F0001D
:10202100EF2FFFEE33FEED33FD40B830E7C280AA5B
:1020310074F8CC6480CCC86480C8F582046043C362
:10204100EB9FF5F0EA9E42F0E99D42F0E89C45F0F5
:1020510060305018E5825FFFE582F42B5582FB501A
:10206100210ABA001D09B90019088016E5825BFB37
:10207100E582F42F5582FF50090EBE00050DBD000B
:10208100010CC3EB9FF5F0EA9E42F0E99D42F0E8B6
:0D2091009C45F06007CC4820E701B3EC222D
:10209E00ED33EC33600A047003BD8004ECB2E7FC50
:0120AE00220F
:1020AF0075F020800E75F010800575F0087D007EAC
:1020BF00007F003392D530D50312220CEC33401041
:1020CF00EF33FFEE33FEED33FDEC33FCD5F0ED22B5
:0E20DF00E5F0247EA2D513CC92E7CDCEFF22F1
:1020ED00EDD2E7CD33EC3392D524814006E4FFFEEB
:1020FD00FDFC22FCE4CFCECDCC24E0501174FF804A
:10210D00EDC3CC13CCCD13CDCE13CECF13CF0470E6
:07211D00F030D5DE02220CB8
:102F310002215922EDA2E7D2E7F9EC3340F260F326
:102F4100B4FF08ED547F70E8022163F82481C2E0E8
:102F5100C0E0F40428FAC313FCED92E7FD900123CD
:102F6100122277EEA2E7E9BA7F02C313340094007C
:102F7100FA75F091A4E5F013F494FE8AF0A433E518
:102F8100F033248CD313FDE492E7FE7F007C3F7580
:102F91008302ECC0E0F8EDC0E0F9EEC0E0FAEFC06A
:102FA100E0FB8583F090012312222685F083121F16
:102FB10094D0E0FBD0E0FAD0E0F9D0E0F8121D9A0D
:102FC100ED6480FD30E7011CD583C7ED33CC33F8C8
:0C2FD100D0E0A2E71328C313CC13FD22AC
:102C2400BE1249253E4CCCCDBEAAAAAB3F800000C3
:102C34003E7ADBB03EED63383F24BC7D3F490FDB79
:102C4400ED33ECC2E7CC339210B4FF13ED547F6044
:102C5400030221597FDB7E0F7DC97C3F022D39C2DF
:102C640011C3947F401E7007EDD2E794904015EF96
:102C7400FBEEFAEDF9ECF87F007E007D807C3F12DC
:102C84001F94D211ED33EC33248430E705E4C0E023
:102C9400806B04FAEDD2E754F0C333DAFD54073401
:102CA400002323C0E0CCC0E0F8EDC0E0F9EEC0E0C2
:102CB400FAEFC0E0FBE41220B9EC24FEFC900123FF
:102CC400122277121E8B7B007A007980783F121DC6
:102CD4009A900123E0B2E7CCF0A3E0CDF0A3E0CEDC
:102CE400F0A3E0CFF0D0E0FBD0E0FAD0E0F9D0E000
:102CF400F8121D9A90012312224F121F949001235F
:102D0400122277902C24740312216E900123122234
:102D14004F121E8BD0E0600F2430F582E4342CF582
:102D24008312225B121D9A30110B7BDB7A0F79C957
:102D340078BF121D9AED33EC336006ECA21092E7D3
:022D4400FC226F
:1033BA00ECC0E0F8EDC0E0F9EEC0E0FAEFC0E0FBE7
:1033CA00121E8BEC6480FC7B007A007980783F12B5
:1033DA001D9A122F35D0E0CFFBD0E0CEFAD0E0CD47
:0B33EA00F9D0E0CCF8121F94022C4434
:10212400E9D2E7C933E833F892D5EDD2E7CD33EC01
:0721340033FC5002B2D5227A
:10213B00EC30E7100FBF000C0EBE00080DBD000405
:10214B000BEB6014A2D5EB13FCED92E7FD2274FFB1
:10215B00FCFDFEFF22E480F8A2D574FF13FC7D800A
:03216B00E480EF1E
:10216E00C0E0EFFBEEFAEDF9ECF8121E8BD0E0F5C5
:10217E00F0EFFBEEFAEDF9ECF8122232A3A3A3A3D3
:10218E00E8C0E0E9C0E0EAC0E0EBC0E0C0F0121E3B
:10219E008B12225BA3A3A3A3121D9AD0F0D0E0FB57
:0D21AE00D0E0FAD0E0F9D0E0F8D5F0D4226E
:102FE900022D46E493A3F8E493A34003F68001F28B
:102FF90008DFF48029E493A3F85407240CC8C333E9
:10300900C4540F4420C8834004F456800146F6DFB7
:10301900E4800B0102040810204080902A17E47E06
:10302900019360BCA3FF543F30E509541FFEE493AC
:10303900A360010ECF54C025E060A840B8E493A373
:10304900FAE493A3F8E493A3C8C582C8CAC583CA9E
:10305900F0A3C8C582C8CAC583CADFE9DEE780BE56
:012C230000B0
:1021BB00BB010689828A83E0225002E722BBFE0222
:0921CB00E32289828A83E4932255
:1021D400F8BB010DE58229F582E5833AF583E8F041
:1021E400225006E92582C8F622BBFE05E92582C8ED
:0221F400F222D5
:1021F600A3F8E0C5F025F0F0E5821582700215839C
:06220600E0C838F0E822F8
:0E220C00C3E49FFFE49EFEE49DFDE49CFC22E3
:0C221A00E6FC08E6FD08E6FE08E6FF22F0
:0C222600E0FCA3E0FDA3E0FEA3E0FF222B
:10223200E493FC740193FD740293FE740393FF22F2
:0D224200E6FB08E6F908E6FA08E6CBF8220C
:0C224F00E0F8A3E0F9A3E0FAA3E0FB2212
:10225B00E493F8740193F9740293FA740393FB22D9
:0C226B00ECF608EDF608EEF608EFF6229F
:0C227700ECF0A3EDF0A3EEF0A3EFF022DA
:10228300A8828583F0D083D08212229A12229A12D6
:10229300229A12229AE473E493A3C583C5F0C583FB
:1022A300C8C582C8F0A3C583C5F0C583C8C582C8A5
:0122B3002208
:00000001FF
